CUST-NAME               PAN NUMBER     AADHAR              CITY                ADDRESS    ACCOUNT.NO
SUNEEL KULKARNI     AOLPK7143P111122229999BANGALORE           KRISHNARAJA PURA            9108011101
SHIVA SUNKU         AOLSS1234Y222233338888HYDERABAD           CHARMINAR CHOWK             9104022202
RAGHUVEER           KOLMO2345S333344447777KOLKATA             NEW TOWN                    9103333301
SHRINIVAS           SOSLK3456TMYSORE      KUVEMPU NAGAR       NEW TOWN                    9100000000
RAKESH RAHEJA       RORLK4567P555566664444NEW DELHI           RAHEJA TOWERS               9101155508
GOKUL MN            GOGLK5678M666677773333CHENNAI             MINAMBAKKAM                 9104466608
